:100000000C9463000C948B000C948B000C948B006C
:100010000C948B000C948B000C948B000C94F006C9
:100020000C948B000C948B000C948B000C948B0024
:100030000C948B000C948B000C948B000C948B0014
:100040000C944C070C948B000C948B000C948B003C
:100050000C948B000C948B000C948B000C948B00F4
:100060000C948B000C948B000000000024002700EF
:100070002A000000000023002600290000000008DC
:10008000000201000003040700000000000000005F
:10009000010204081020408001020408102001021F
:1000A0000408102000000000250028002B00040494
:1000B0000404040404040202020202020303030310
:1000C00003030200D40A11241FBECFEFD8E0DEBF25
:1000D000CDBF26E0A6E8B5E001C01D92AC32B20764
:1000E000E1F715E0A0E0B1E0E2EAFDE102C0059031
:1000F0000D92A638B107D9F710E0C3E6D0E004C0EE
:100100002197FE010E94D00CC236D107C9F70E9488
:1001100096070C94CF0E0C94000096E0899FD001B6
:100120001124AF55BA4F90967C936E935F9791E0F0
:1001300091969C939197E0910E06F0910F06909105
:100140000D06992339F0309751F0811108C0809144
:10015000BD050994309719F05C968C91FACF0895FB
:10016000CF92DF92EF92FF920F931F9396E0899FB9
:10017000F0011124EF55FA4F11A2278D30A1213043
:10018000310551F178F02230310509F451C02330A6
:10019000310509F452C01F910F91FF90EF90DF904D
:1001A000CF9008956623B9F361E070E00E948D005E
:1001B0002FB7F89480919D0590919E05A0919F0581
:1001C000B091A0052FBF8093F9059093FA05A093F5
:1001D000FB05B093FC05DFCF9FB7F894C0909D0559
:1001E000D0909E05E0909F05F090A0059FBF0091E4
:1001F000F9051091FA052091FB053091FC05C01A14
:10020000D10AE20AF30A00910B0610910C0630E0C5
:1002100020E00C151D052E053F0550F462E070E04E
:100220001F910F91FF90EF90DF90CF900C948D0075
:100230006111B1CF63E070E0F3CF70E060E0F0CF28
:10024000AF92BF92CF92DF92EF92FF920F931F93E4
:10025000CF93DF936C017B018B01040F151FEB0122
:100260005E01AE18BF08C017D10759F06991D601D9
:10027000ED91FC910190F081E02DC6010995892B4B
:1002800079F7C501DF91CF911F910F91FF90EF900A
:10029000DF90CF90BF90AF900895833081F028F425
:1002A000813099F08230A9F008958730A9F0883024
:1002B000C9F08430B1F4809180008F7D03C08091BB
:1002C00080008F7780938000089584B58F7784BDF8
:1002D000089584B58F7DFBCF8091B0008F77809398
:1002E000B00008958091B0008F7DF9CFCF93DF9358
:1002F000282F30E0F901E458FF4F8491F901E057CD
:10030000FF4FD491F901E255FF4FC491CC23A1F0E6
:1003100081110E944D01EC2FF0E0EE0FFF1FEE580F
:10032000FF4FA591B491EC91ED2381E090E009F4A9
:1003300080E0DF91CF91089580E090E0FACF862FA2
:100340000C9476011F93CF93DF93282F30E0F901AF
:10035000E458FF4F8491F901E057FF4FD491F90120
:10036000E255FF4FC491CC23A9F0162F81110E94B2
:100370004D01EC2FF0E0EE0FFF1FEC55FF4FA59164
:10038000B4918FB7F894EC91111108C0D095DE2389
:10039000DC938FBFDF91CF911F910895DE2BF8CFB3
:1003A000862F642F0C94A2019091180189130BC021
:1003B000E2ECF0E0E4919FEF90931801E13049F016
:1003C00028F0E23061F060E00C94A20110926E001F
:1003D000FACF90916F009D7F90936F00F4CF909132
:1003E00070009D7F9093700091E09093B000909189
:1003F000B100987F94609093B1001092B300E3CF66
:10040000CF93DF9390E0FC01E057FF4F249182559A
:100410009F4FFC0184918823C9F090E0880F991FB9
:10042000FC01E859FF4FA591B491FC01EC55FF4F39
:10043000C591D49161110DC09FB7F8948C9120950E
:1004400082238C938881282328839FBFDF91CF91BB
:100450000895623051F49FB7F8943C91822F8095B3
:1004600083238C93E8812E2BEFCF8FB7F894EC91F8
:100470002E2B2C938FBFEACF862F642F0C94000273
:100480004F925F926F927F928F929F92AF92BF92A4
:10049000CF92DF92EF92FF920F931F93CF93DF9350
:1004A00000D000D01F92CDB7DEB78B0129013A01F1
:1004B000909118018917C9F09F3F09F47EC00F90F1
:1004C0000F900F900F900F90DF91CF911F910F9190
:1004D000FF90EF90DF90CF90BF90AF909F908F9064
:1004E0007F906F905F904F900895E2ECF0E09491D0
:1004F0009D8397FDE4CF61E00E9400028D818823F7
:1005000021F09D81923009F04AC14801B12CA12C03
:1005100060E072E18AE790E0A50198010E94B10CC9
:1005200029833A834B835C8369017A0181E0C81A8D
:10053000D108E108F1089FEFC916D104E104F104E4
:1005400009F00CF401C160E472E48FE090E0A501D1
:1005500098010E94B10C69017A0181E0C81AD108A2
:10056000E108F1089D81923009F0A2C08FEFC81612
:10057000D104E104F10409F00CF4E6C160E970ED86
:1005800083E090E0A50198010E94B10C69017A0115
:1005900091E0C91AD108E108F1088FEFC816D1041B
:1005A000E104F10411F00CF07FC183E09091B100FF
:1005B000987F892B8093B100CFC080931801E2EC23
:1005C000F0E094919D839F3F09F479CF913041F100
:1005D00050F0923009F446C09D8197FD70CF61E0E4
:1005E0000E9400028ECF14BC15BC94B5926094BDDD
:1005F00095B5916095BD282F30E0F901E255FF4F88
:10060000E491F0E0EE0FFF1FEC55FF4F4591549140
:10061000F901E057FF4FE491E0938C051D826BCF09
:1006200010928000109281009091810098609093C8
:10063000810090918100916090938100282F30E09B
:10064000F901E255FF4FE491F0E0EE0FFF1FEC558A
:10065000FF4F45915491F901E057FF4FE491E0932A
:100660008B0549CF1092B0001092B1009091B0006C
:1006700092609093B0009091B10091609093B1001E
:10068000282F30E0F901E255FF4FE491F0E0EE0F42
:10069000FF1FEC55FF4F45915491509396054093A1
:1006A0009505F901E057FF4FE491E093970523CFBB
:1006B0009FEFC916D104E104F10409F00CF46DC0F8
:1006C00068E478EE81E090E0A50198010E94B10C09
:1006D00069017A0181E0C81AD108E108F1089D8119
:1006E000992309F4FAC08FEFC816D104E104F1048C
:1006F00011F00CF0FBC0EFC064E274EF80E090E01A
:10070000A50194010E94B10C69017A0181E0C81A27
:10071000D108E108F10885E09FEFC916D104E10492
:10072000F10409F008F442CF62E17AE780E090E05A
:10073000A50194010E94B10C69017A0181E0C81AF7
:10074000D108E108F108E5C081E09D8191112ECF2B
:1007500095B5987F892B85BD2FEF3FEFA9014114F7
:1007600051046104710409F043C09D81913009F482
:100770005EC0923009F46DC09111A1CEC7BC209328
:100780009105309392054093930550939405809181
:100790006E00826080936E0092CE82E0D6CFB12C44
:1007A000A12C60E072E18AE790E0A50198010E9427
:1007B000B10C69017A0181E0C81AD108E108F10899
:1007C000C114D10491E0E906F10404F591E08D81B2
:1007D000813011F680918100887F892B8093810080
:1007E0002FEF3FEFA9014114510461047104F9F0A6
:1007F000D801AA0FBB1FA30192010E94080C28EE8A
:1008000033E040E050E00E948F0CAFCF68E478EE18
:1008100081E090E0A50198010E94B10C69017A0184
:1008200081E0C81AD108E108F10893E0D0CFD09256
:100830008900C092880020938D0530938E054093E7
:100840008F055093900580916F00826080936F00B8
:1008500036CEC092B300209398053093990540930B
:100860009A0550939B058091700082608093700080
:1008700026CE84E09FEFC916D104E104F10409F00B
:1008800008F466CFC980DA80EB80FC808AE0F594BA
:10089000E794D794C7948A95D1F781E0C81AD10814
:1008A000E108F10885E054CF68E478EE81E090E05B
:1008B000A50198010E94B10C69017A0181E0C81A72
:1008C000D108E108F1089FEFC916D104E104F10451
:1008D00011F00CF011CF84E069CE83E09FEFC916D0
:1008E000D104E104F10409F00CF432CF62E17AE7BB
:1008F00080E090E0A50194010E94B10C69017A01A9
:1009000081E0C81AD108E108F1089D81992309F412
:10091000B0CF86E09FEFC916D104E104F10409F0DD
:1009200008F444CEC980DA80EB80FC809AE0F5942C
:10093000E794D794C7949A95D1F781E0C81AD10863
:10094000E108F10887E032CE82E030CE3FB7F8947C
:100950008091870590918805A0918905B0918A05BD
:1009600026B5A89B05C02F3F19F00196A11DB11D0A
:100970003FBFBA2FA92F982F8827BC01CD01620F46
:10098000711D811D911D42E0660F771F881F991F01
:100990004A95D1F708958F929F92AF92BF92CF92CE
:1009A000DF92EF92FF926B017C010E94A6044B0143
:1009B0005C01C114D104E104F104B9F00E94A60461
:1009C000681979098A099B09683E73408105910578
:1009D00080F321E0C21AD108E108F10888EE880E00
:1009E00083E0981EA11CB11CE4CFFF90EF90DF9034
:1009F000CF90BF90AF909F908F900895089590E012
:100A000080E00895FC0101900020E9F73197AF01E3
:100A1000481B590BBC0180E196E00C942001CF9358
:100A2000DF93EC0160E08E810E94A20161E08E8183
:100A30000E94A20160E08E810E94A2018BE891E0F9
:100A40000197F1F7DF91CF910895CF92DF92EF9266
:100A5000FF920F931F93CF93DF936C017C0187E08C
:100A6000E80EF11CD0E0C0E0062F10E0B8010C2E1B
:100A700002C0759567950A94E2F76170F70181915C
:100A80007F010E94A2012196C430D10579F7C601E9
:100A9000DF91CF911F910F91FF90EF90DF90CF905A
:100AA0000C940F05CF92DF92EF92FF920F931F935A
:100AB000CF93DF93EC01F62E642F8C810E94A2016C
:100AC0008D818F3F19F060E00E94A2010F2D10E090
:100AD0008F8584FF25C06E0187E0C80ED11CF12CE4
:100AE000E12CB8010E2C02C0759567950A94E2F7C7
:100AF0006170F60181916F010E94A201FFEFEF1A70
:100B0000FF0A88E0E816F10461F7CE01DF91CF918A
:100B10001F910F91FF90EF90DF90CF900C940F05F5
:100B2000B80184E0759567958A95E1F7CE010E943A
:100B300025056F2DCE01DF91CF911F910F91FF9071
:100B4000EF90DF90CF900C94250540E0682F80E176
:100B500096E00C94520581E00E94A5058BE39FE18D
:100B60000197F1F70895CF93DF93823029F49091A4
:100B70001F06986090931F06809323061092240608
:100B800080E48093250680E18093260680E58093AB
:100B9000270661E0809114060E94000280911506EC
:100BA0008F3F19F061E00E94000261E0809116061B
:100BB0000E940002C0E1D6E09E01205136408091A3
:100BC0001F0684FD0BC084E090E0219628173907AA
:100BD00044F461E08E810E940002EECF88E090E054
:100BE000F4CF8BE39DE00197F1F760E0809114066C
:100BF0000E94A20160E0809116060E94A2018091ED
:100C000015068F3F19F060E00E94A20180911F0637
:100C100084FD34C063E080E196E00E942505CBE4CA
:100C2000D6E4CE010197F1F763E080E196E00E94FF
:100C300025052197F1F763E080E196E00E94250504
:100C400083E592E00197F1F762E080E196E00E948F
:100C5000250580911F0680620E94A50584E080938F
:100C600020068CE00E94A5050E94AB0582E08093DF
:100C7000210686E0DF91CF910C94A50580620E9449
:100C8000A5058BE496E40197F1F780911F06806239
:100C90000E94A50583E592E00197F1F780911F0678
:100CA00080620E94A505D5CF90912306691710F0A8
:100CB0006FEF690FE62FF0E0E05FF94F9489890F3D
:100CC00080680C94A50541E00E94520581E090E007
:100CD0000895CF93DF93EC0128EC30E040E050E042
:100CE00083E00E9440026CE271E080E090E00E94AC
:100CF000CB040E94AB0560E087E00E9454064C8163
:100D00005D816881798180E196E00E94200161E047
:100D10008DE00E94000261E08DE00E94A20168EC7B
:100D200070E080E090E00E94CB0461E08DE00E94E2
:100D3000000260E08DE0DF91CF910C94A201FC01F4
:100D400080819181009711F00C94790D0895EF92B4
:100D5000FF920F931F93CF93DF93EC017B011982D6
:100D600018821B821A821D821C82FB0101900020C6
:100D7000E9F731978F01061B170BB8016F5F7F4FA3
:100D800090E080E00E94020E0097B9F0998388837A
:100D90001B830A832C813D81232B11F4FC011082DB
:100DA0001D830C83B70188819981DF91CF911F91B9
:100DB0000F91FF90EF900C94C80E88819981009755
:100DC00011F00E94790D198218821D821C821B82EB
:100DD0001A82DF91CF911F910F91FF90EF900895AC
:100DE0001F920F920FB60F9211242F933F934F93A0
:100DF0005F936F937F938F939F93AF93BF93EF9383
:100E0000FF938091980590919905A0919A05B091D2
:100E10009B05892B8A2B8B2BD1F190919705E09123
:100E20009505F091960580818927808380919805AA
:100E300090919905A0919A05B0919B0518161906F5
:100E40001A061B069CF48091980590919905A09133
:100E50009A05B0919B050197A109B1098093980566
:100E600090939905A0939A05B0939B05FF91EF91FC
:100E7000BF91AF919F918F917F916F915F914F91B2
:100E80003F912F910F900FBE0F901F90189580915A
:100E900018010E94D401EACF1F920F920FB60F9251
:100EA00011242F933F938F939F93AF93BF93809180
:100EB0009D0590919E05A0919F05B091A005309150
:100EC000860523E0230F2D3758F50196A11DB11D8E
:100ED0002093860580939D0590939E05A0939F0582
:100EE000B093A0058091870590918805A091890510
:100EF000B0918A050196A11DB11D8093870590933D
:100F00008805A0938905B0938A05BF91AF919F9101
:100F10008F913F912F910F900FBE0F901F901895BA
:100F200026E8230F0296A11DB11DD2CFCF93DF93E8
:100F3000CDB7DEB7C158D1090FB6F894DEBF0FBEEA
:100F4000CDBF789484B5826084BD84B5816084BD52
:100F500085B5826085BD85B5816085BD80916E0057
:100F6000816080936E001092810080918100826088
:100F700080938100809181008160809381008091C5
:100F800080008160809380008091B10084608093B4
:100F9000B1008091B00081608093B00080917A00B0
:100FA000846080937A0080917A00826080937A00D6
:100FB00080917A00816080937A0080917A008068C5
:100FC00080937A001092C10061E083E00E940002E9
:100FD00061E083E00E94000260E083E00E94A201E1
:100FE00061E08DE00E94000282E00E94B3058BE484
:100FF00095E00E94020581E080930D068FB7F8947A
:1010000040919D0550919E0560919F057091A005AE
:101010008FBF8091FD059091FE05A091FF05B091D5
:101020000006481B590B6A0B7B0B809109069091B7
:101030000A06B0E0A0E084179507A607B70708F0F6
:1010400020C110E080910706181760F4E0910306B4
:10105000F0910406E10FF11D62E080810E94000220
:101060001F5FF0CFB12C80910806B81608F063C05E
:10107000EB2CF12CE0910506F0910606EE0DFF1D1C
:1010800061E080810E940002E0910506F091060671
:10109000EE0DFF1D60E080810E94A20181E090E0E2
:1010A000A0E0B0E00B2C04C0880F991FAA1FBB1F43
:1010B0000A94D2F74C016C01C094D094712C8091A9
:1010C0000706781608F5072D10E0E0910306F09169
:1010D0000406E00FF11F80810E9476010C5F1F4F14
:1010E000000F111FF801EF55FA4F892B41F4808151
:1010F000918188299929918380837394E0CF80819D
:1011000091818C219D21F7CFE0910506F091060693
:10111000EE0DFF1D61E080810E94A2018091050615
:1011200090910606E80EF91E60E0D7018C910E94AE
:101130000002B39498CF41EAE42E45E0F42E670113
:10114000F601878D90A1892B31F4148E8FEF9FEFDC
:10115000968F858F11A296E0C90ED11CADEDB5E03A
:10116000AC15BD0569F7B12C80910706B81608F0DB
:1011700051C0912C0B2D10E0000F111F07551A4F75
:1011800020910806921608F043C0F8016081718131
:10119000092C02C0769567950A94E2F7B29E9001F9
:1011A0001124290D311DE1EAF5E080E0458D568DD1
:1011B0002417350709F4F6C18F5F36968A30B1F7E8
:1011C00060FF24C0E1EAF5E090E080E0448D411149
:1011D00018C0E0910106F0910206E20FF31F408172
:1011E00056E0589FF001599FF00D1124EF55FA4F2A
:1011F000448F368F258F10A2178E61E00E94B000B9
:1012000005C0019636968A30910501F79394B8CFC0
:10121000B394AACF80E0D70191969C919111892F28
:10122000B6E0EB0EF11CCE14DF04A9F79FB7F894DB
:1012300040919D0550919E0560919F057091A0057C
:101240009FBF4093FD055093FE056093FF0570938B
:1012500000068823B1F08091C205882391F0809127
:10126000C0059091C105019761F4E091BD05E111C0
:101270000BC0E0E0F0E0EF2B09F4BDCE0E940000CF
:10128000BACE10920D06F5CFE053E53190F70E2E51
:10129000000CFF0BE25BF64F0C94D00CC70AF00970
:1012A000C70AC70AAE09C409DA0967098F09A5097F
:1012B00039093909390939093909390939096309F4
:1012C00039093909F90981E080939C05D2CF8091D1
:1012D0009C05882399F06BE575E0CE0101960E948C
:1012E000A70665E171E0CE0101960E946906CE0174
:1012F00001960E949F0610929C05BBCF6FE575E09A
:10130000CE0101960E94A70666E071E0CE0101962B
:101310000E946906CE0101960E949F06AACF809185
:101320009C05882349F062E675E0CE0101960E9493
:10133000A70667E371E0D7CF66E675E0CE010196B8
:101340000E94A70666E271E0E1CF69E675E0CE0192
:1013500001960E94A7066AE471E0D8CF80919C05AF
:10136000882349F06CE675E0CE0101960E94A7063D
:1013700062E771E0B8CF60E775E0CE0101960E94A8
:10138000A7066DE571E0C2CF80919C05882349F0E6
:1013900063E775E0CE0101960E94A7066FE971E050
:1013A000A2CF68E775E0CE0101960E94A70668E823
:1013B00071E0ACCF80919C05882349F06CE775E023
:1013C000CE0101960E94A70662ED71E08CCF60E825
:1013D00075E0CE0101960E94A70668EB71E096CFFA
:1013E00063E875E0CE0101960E94A7066EEE71E0FB
:1013F0008DCF21E9A22E24E0B22EEDEAF1E0EC96A9
:10140000FFAFEEAFEC97D501ED915D01EA96EFAF3E
:10141000EA97EC96AEADBFADEC976D917D918D9155
:101420009D91EC96BFAFAEAFEC9720E030E04AE282
:1014300053E40E944A0BEA96BFADEA97B03281F4BA
:101440000E94600C0E94CB0465E570E080E090E0B3
:101450000E94CB04B0E5AB16B5E0BB06A1F609CF00
:1014600028E2EFE1F1E0DE01AF5ABF4F01900D92AB
:101470002A95E1F720E5E7E4F1E0DE01119601901D
:101480000D922A95E1F70E94590CDB0128EE33E01A
:101490000E94D60C2B013C01FE01EF5AFF4FEE9645
:1014A000FFAFEEAFEE97312C212CEE96AEADBFAD77
:1014B000EE978D91EE96BFAFAEAFEE97EA96BFADC9
:1014C000EA97B8135BC061E08DE00E94000261E022
:1014D0008DE00E94A20162E370E080E090E00E9453
:1014E000CB0461E08DE00E94000260E08DE00E948C
:1014F000A201F101EE0FFF1F81E090E08C0F9D1F14
:10150000E80FF91F808091808401000F111F000FE8
:10151000111F05501109C12CD12C7601C401092CD1
:10152000000CAA0BBB0BC258DF4F88839983AA8398
:10153000BB83CE57D040C414D504E604F704DCF4D2
:1015400020E030E0A901B40183E00E94400292E073
:101550008916910418F0C8010197F1F7C258DF4FBE
:1015600088819981AA81BB81CE57D040C80ED91EEF
:10157000EA1EFB1EE0CF83E00E94D4019FEF291AF0
:10158000390AA8E22A16310409F08FCF5DCF0E94F4
:10159000AB0561E080E00E9454068FE695E00E9472
:1015A000020567CE61702ACE1092130610921206C1
:1015B00085EA91E0909311068093100681E0809374
:1015C00014068FEF80931506109216068FE0809315
:1015D000170680E1809318068AE08093190689E057
:1015E00080931A0610921B0610921C0610921D067C
:1015F00010921E0610921F0681E00E94B305109201
:10160000A3051092A7051092A6051092A8058BE9D4
:1016100091E09093A2058093A105EDEBF5E0108297
:10162000148213821582369685E0E93FF807B9F7F0
:1016300084E091E0909304068093030680E091E0BB
:10164000909306068093050684E0809307068093B6
:10165000080688E091E090930206809301068AE0F4
:1016600090E090930A068093090684EF91E09093AE
:101670000C0680930B0610920F0610920E06109225
:10168000FD051092FE051092FF05109200061092C3
:101690000D0608950E945D0B0C94CE0B0E94C00BAA
:1016A00038F00E94C70B20F0952311F00C94B70B73
:1016B0000C94BD0B11240C94020C0E94DF0B70F3F0
:1016C000959FC1F3950F50E0551F629FF001729FE7
:1016D000BB27F00DB11D639FAA27F00DB11DAA1FF6
:1016E000649F6627B00DA11D661F829F2227B00D43
:1016F000A11D621F739FB00DA11D621F839FA00DCE
:10170000611D221F749F3327A00D611D231F849F1D
:10171000600D211D822F762F6A2F11249F57504074
:101720009AF0F1F088234AF0EE0FFF1FBB1F661FEF
:10173000771F881F91505040A9F79E3F510580F0B8
:101740000C94B70B0C94020C5F3FE4F3983ED4F377
:10175000869577956795B795F795E7959F5FC1F75C
:10176000FE2B880F911D9695879597F9089597F907
:101770009F6780E870E060E008959FEF80EC089537
:1017800000240A9416161706180609060895002460
:101790000A9412161306140605060895092E0394DA
:1017A000000C11F4882352F0BB0F40F4BF2B11F44E
:1017B00060FF04C06F5F7F4F8F4F9F4F089557FDAD
:1017C0009058440F551F59F05F3F71F04795880FAF
:1017D00097FB991F61F09F3F79F087950895121646
:1017E00013061406551FF2CF4695F1DF08C01616F2
:1017F00017061806991FF1CF8695710561050894A3
:101800000895E894BB2766277727CB0197F90895B9
:101810000E944A0CA59F900DB49F900DA49F800D2F
:10182000911D112408952F923F924F925F926F92D3
:101830007F928F929F92AF92BF92CF92DF92EF9260
:10184000FF920F931F93CF93DF93CDB7DEB7CA1BE1
:10185000DB0B0FB6F894DEBF0FBECDBF09942A880C
:10186000398848885F846E847D848C849B84AA84B4
:10187000B984C884DF80EE80FD800C811B81AA8141
:10188000B981CE0FD11D0FB6F894DEBF0FBECDBF0C
:10189000ED010895A29FB001B39FC001A39F700DF9
:1018A000811D1124911DB29F700D811D1124911D68
:1018B00008950E94600C6894B1110C94020C089574
:1018C0000E94E70B88F09F5798F0B92F9927B751DE
:1018D000B0F0E1F0660F771F881F991F1AF0BA95D4
:1018E000C9F714C0B13091F00E94010CB1E0089525
:1018F0000C94010C672F782F8827B85F39F0B93F17
:10190000CCF3869577956795B395D9F73EF4909586
:101910008095709561957F4F8F4F9F4F0895A1E2FD
:101920001A2EAA1BBB1BFD010DC0AA1FBB1FEE1F59
:10193000FF1FA217B307E407F50720F0A21BB30BA4
:10194000E40BF50B661F771F881F991F1A9469F720
:1019500060957095809590959B01AC01BD01CF017C
:101960000895052E97FB1EF400940E94C80C57FDA5
:1019700007D00E948F0C07FC03D04EF40C94C80CC7
:1019800050954095309521953F4F4F4F5F4F0895AB
:1019900090958095709561957F4F8F4F9F4F0895DB
:1019A000EE0FFF1F0590F491E02D09940E944A0C60
:1019B000B7FF0895821B930B08950F931F93CF9346
:1019C000DF938230910510F482E090E0E0912A06E6
:1019D000F0912B0630E020E0B0E0A0E0309799F4E1
:1019E0002115310509F44AC0281B390B2430310573
:1019F000D8F58A819B816115710589F1FB0193837B
:101A00008283FE0111C040815181028113814817F8
:101A10005907E0F04817590799F4109761F01296AA
:101A20000C93129713961C933296CF01DF91CF91AE
:101A30001F910F91089500932A0610932B06F4CF5F
:101A40002115310551F04217530738F0A901DB0188
:101A50009A01BD01DF01F801C1CFEF01F9CF9093E9
:101A60002B0680932A06CDCFFE01E20FF31F819350
:101A700091932250310939832883D7CF20912806AA
:101A800030912906232B41F420911B0130911C0138
:101A900030932906209328062091190130911A01CC
:101AA0002115310541F42DB73EB740911D015091EC
:101AB0001E01241B350BE0912806F0912906E21740
:101AC000F307A0F42E1B3F0B2817390778F0AC0161
:101AD0004E5F5F4F2417350748F04E0F5F1F50933E
:101AE000290640932806819391939FCFF0E0E0E090
:101AF0009CCFCF93DF930097E9F0FC0132971382DC
:101B00001282A0912A06B0912B06ED0130E020E070
:101B10001097A1F420813181820F931F2091280614
:101B2000309129062817390709F061C0F09329067A
:101B3000E0932806DF91CF910895EA01CE17DF07E1
:101B4000E8F54A815B819E0141155105B1F7E90134
:101B5000FB83EA8349915991C40FD51FEC17FD0708
:101B600061F4808191810296840F951FE901998328
:101B70008883828193819B838A83F0E0E0E01296E0
:101B80008D919C9113970097B9F52D913C911197E8
:101B9000CD010296820F931F2091280630912906CD
:101BA0002817390739F6309751F510922B06109205
:101BB0002A06B0932906A0932806BCCFD383C283FC
:101BC00040815181840F951FC817D90761F44E5F7A
:101BD0005F4F88819981480F591F518340838A81C3
:101BE0009B81938382832115310509F0B0CFF09357
:101BF0002B06E0932A069ECFFD01DC01C0CF1382A5
:101C00001282D7CFB0E0A0E0E8E0FEE00C94150C23
:101C10008C01009751F4CB010E94DD0C8C01C801AE
:101C2000CDB7DEB7E0E10C94310CFC01E60FF71FF5
:101C30009C0122503109E217F30708F49DC0D90135
:101C4000CD91DC911197C617D70798F0C530D10513
:101C500030F3CE0104978617970708F3C61BD70BFE
:101C60002297C193D1936D937C93CF010E94790DFC
:101C7000D6CF5B01AC1ABD0A4C018C0E9D1EA09103
:101C80002A06B0912B06512C412CF12CE12C1097F7
:101C900031F580912806909129068815990509F05B
:101CA0005CC04616570608F058C080911901909103
:101CB0001A01009741F48DB79EB740911D015091D4
:101CC0001E01841B950BE817F90708F055C0F09327
:101CD0002906E0932806F90171836083A0CF8D91D6
:101CE0009C91119712966C90129713967C90139773
:101CF000A815B90559F56C0142E0C40ED11CCA14EF
:101D0000DB0420F1AC014A195B09DA011296159740
:101D100080F06282738251834083D9016D937C93FA
:101D2000E114F10471F0D7011396FC93EE9312972E
:101D300076CF22968C0F9D1FF90191838083F3014A
:101D4000EFCFF0932B06E0932A0669CF4816590689
:101D500008F42C017D01D3019ACFCB010E94DD0C48
:101D60007C01009749F0AE01B8010E94BF0EC80186
:101D70000E94790D870153CF10E000E050CFFB01A6
:101D8000DC0102C001900D9241505040D8F70895F7
:101D9000FB01DC0101900D920020E1F70895F89419
:021DA000FFCF73
:101DA200060504020C0B0807373839413435364230
:101DB2003132334345304644FF00002C0680002078
:101DC200213233343536373839302D3D636472650C
:101DD2006667536162734344524546474F416F42BF
:101DE200694E5275314C6B000016048A0092009BBA
:101DF20000A400AE00B800C300CF00DC00E900F68A
:101E02000005012501370149015D0187019F01B8E4
:101E120001ED01D2010B024B026E029302BA020FD4
:101E2200033F037003A403DB03D201E4026E029FAB
:101E32000116046E02E300000000003C02D0019F84
:101E4200010000000063062001FF04FE0400008080
:101E5200400000803F0000803F0000803F00008083
:101E62003F0000803F0000803F0000803F00008074
:101E72003F00000040000000400000803F00008062
:101E82003F0000803F0000803F00000040000080D3
:101E92003F00000040000000400000803F000000C2
:101EA20040000000400000803F0000803F000080B2
:101EB2003F0000803F000000400000803F00000023
:101EC2004000000040000000400000803F00008011
:101ED2003F0000803F000000400000004000000082
:101EE200400000803F000040400000803F00008032
:101EF2003F000000400000004000000040000000E1
:101F0200400000404000000040000000400000800F
:101F12003F0000004100000041000000400000803E
:101F22003F000000400000004000000040000000B0
:101F3200400000004000000040000000400000801F
:101F4200400000803F0000803F0000803F00008092
:101F52003F0000803F000000400000803F00000082
:101F6200400000803F000000400000404000008030
:101F72003F0000803F0000803F0000803F00008063
:101F82003F0000803F0000803F0000803F00008053
:101F92003F000000400000803F0000004000004081
:101FA200400000803F0000803F0000004000000031
:101FB200400000803F000000400000803F00000021
:101FC20040000000400000803F0000004000000090
:101FD200400000803F000000400000C04000008040
:101FE2003F0000803F0000803F0000803F000080F3
:101FF200400000803F0000803F0000803F000080E2
:102002003F0000803F000000400000803F000000D1
:10201200400000803F00000040000040400000807F
:102022003F00000040000000400000803F000040F0
:10203200400000803F00000040000000400000809F
:102042003F0000C0400000803F0000803F00008051
:102052003F0000803F000000400000004000008080
:102062003F00000040000000400000803F00008070
:10207200400000803F0000803F0000803F0000C021
:102082004000000040000000400000803F000000CF
:10209200400000803F0000803F00000040000080C0
:1020A2003F000040400000803F0000803F00008071
:1020B2003F0000803F0000803F0000803F00008022
:1020C2003F000000400000803F0000803F00000011
:1020D200400000803F0000803F0000004000008080
:1020E2003F0000803F0000803F0000004000008071
:1020F2003F000040400000803F0000A04000008000
:102102003F0000803F000000400000803F00008050
:102112003F0000803F00000040000040400000807F
:102122003F0000803F0000803F0000803F00002011
:1021320041636766676567646720676765666761AD
:1021420067666564206565636465666564633D30E2
:1021520020303063616767636465666564636463E6
:10216200633D636465202142414746454443206301
:10217200636363632D392D632D202D2D2D2D2D2D80
:102182002D3938392D3920393939393838383836F6
:1021920036383436382039392D63636363636363B9
:1021A2002D392D632D2D2D636464722D393839201C
:1021B200392D3938383838676666667264726364F6
:1021C20072726372726372207266726463632D3814
:1021D2002D2D382D2D20382D636464726364647252
:1021E20063206367666666726667004E6F7461732A
:1021F200206D75736963616C657300444F230044FD
:102202004F00524523005245004D490046412300EC
:10221200464100534F4C2300534F4C004C41230086
:062222004C41005349008D
:00000001FF
